{
  "contractName": "AdditionGame",
  "abi": [
    {
      "inputs": [],
      "stateMutability": "nonpayable",
      "type": "constructor"
    },
    {
      "inputs": [],
      "name": "owner",
      "outputs": [
        {
          "internalType": "address",
          "name": "",
          "type": "address"
        }
      ],
      "stateMutability": "view",
      "type": "function",
      "constant": true
    },
    {
      "inputs": [],
      "name": "getBalance",
      "outputs": [
        {
          "internalType": "uint256",
          "name": "",
          "type": "uint256"
        }
      ],
      "stateMutability": "view",
      "type": "function",
      "constant": true
    },
    {
      "inputs": [],
      "name": "deposit",
      "outputs": [],
      "stateMutability": "payable",
      "type": "function",
      "payable": true
    },
    {
      "inputs": [
        {
          "internalType": "uint256",
          "name": "_value",
          "type": "uint256"
        }
      ],
      "name": "transfer",
      "outputs": [
        {
          "internalType": "bool",
          "name": "",
          "type": "bool"
        }
      ],
      "stateMutability": "nonpayable",
      "type": "function"
    }
  ],
  "bytecode": "0x608060405234801561001057600080fd5b50336000806101000a81548173ffffffffffffffffffffffffffffffffffffffff021916908373ffffffffffffffffffffffffffffffffffffffff160217905550610327806100606000396000f3fe60806040526004361061003f5760003560e01c806312065fe01461004457806312514bba1461006f5780638da5cb5b146100ac578063d0e30db0146100d7575b600080fd5b34801561005057600080fd5b506100596100e1565b60405161006691906101e6565b60405180910390f35b34801561007b57600080fd5b5061009660048036038101906100919190610232565b6100e9565b6040516100a3919061027a565b60405180910390f35b3480156100b857600080fd5b506100c161014f565b6040516100ce91906102d6565b60405180910390f35b6100df610173565b005b600047905090565b6000816100f46100e1565b10156100ff57600080fd5b3373ffffffffffffffffffffffffffffffffffffffff166108fc839081150290604051600060405180830381858888f19350505050158015610145573d6000803e3d6000fd5b5060019050919050565b60008054906101000a900473ffffffffffffffffffffffffffffffffffffffff1681565b60008054906101000a900473ffffffffffffffffffffffffffffffffffffffff1673ffffffffffffffffffffffffffffffffffffffff163373ffffffffffffffffffffffffffffffffffffffff16146101cb57600080fd5b565b6000819050919050565b6101e0816101cd565b82525050565b60006020820190506101fb60008301846101d7565b92915050565b600080fd5b61020f816101cd565b811461021a57600080fd5b50565b60008135905061022c81610206565b92915050565b60006020828403121561024857610247610201565b5b60006102568482850161021d565b91505092915050565b60008115159050919050565b6102748161025f565b82525050565b600060208201905061028f600083018461026b565b92915050565b600073ffffffffffffffffffffffffffffffffffffffff82169050919050565b60006102c082610295565b9050919050565b6102d0816102b5565b82525050565b60006020820190506102eb60008301846102c7565b9291505056fea2646970667358221220b02eebd063315df788587f798a5fef2e99ebf27e912c52385a9a08d5c5ed623464736f6c634300080d0033",
  "immutableReferences": {},
  "source": "// SPDX-License-Identifier: GPL-3.0\npragma solidity >=0.7.0 <0.9.0;\n\ncontract AdditionGame {\n    address public owner;\n\n    constructor() {\n        owner = msg.sender;\n    }\n\n    function getBalance() public view returns (uint256) {\n        return address(this).balance;\n    }\n\n    function deposit() public payable {\n        require(msg.sender == owner);\n    }\n\n    function transfer(uint256 _value) public returns (bool) {\n        require(getBalance() >= _value);\n        payable(msg.sender).transfer(_value);\n        return true;\n    }\n}\n",
  "sourcePath": "/mnt/c/Users//Desktop/Klayton-Addition-Game/contracts/AdditionGame.sol",
  "compiler": {
    "name": "solc",
    "version": "0.8.13+commit.abaa5c0e.Emscripten.clang"
  },
  "schemaVersion": "3.4.7",
  "updatedAt": "2022-06-26T15:56:50.282Z",
  "networkType": "ethereum",
  "devdoc": {
    "kind": "dev",
    "methods": {},
    "version": 1
  },
  "userdoc": {
    "kind": "user",
    "methods": {},
    "version": 1
  }
}